{
  "contractName": "DoctorRegistry",
  "abi": [
    {
      "inputs": [],
      "stateMutability": "nonpayable",
      "type": "constructor"
    },
    {
      "anonymous": false,
      "inputs": [
        {
          "indexed": true,
          "internalType": "address",
          "name": "doctorAddress",
          "type": "address"
        },
        {
          "indexed": false,
          "internalType": "string",
          "name": "fullName",
          "type": "string"
        },
        {
          "indexed": false,
          "internalType": "string",
          "name": "hospital",
          "type": "string"
        }
      ],
      "name": "DoctorRegistered",
      "type": "event"
    },
    {
      "inputs": [],
      "name": "admin",
      "outputs": [
        {
          "internalType": "address",
          "name": "",
          "type": "address"
        }
      ],
      "stateMutability": "view",
      "type": "function",
      "constant": true
    },
    {
      "inputs": [
        {
          "internalType": "address",
          "name": "",
          "type": "address"
        }
      ],
      "name": "doctors",
      "outputs": [
        {
          "internalType": "string",
          "name": "fullName",
          "type": "string"
        },
        {
          "internalType": "string",
          "name": "hospital",
          "type": "string"
        },
        {
          "internalType": "string",
          "name": "addressDetails",
          "type": "string"
        },
        {
          "internalType": "string",
          "name": "position",
          "type": "string"
        },
        {
          "internalType": "string",
          "name": "department",
          "type": "string"
        },
        {
          "internalType": "string",
          "name": "medicalID",
          "type": "string"
        },
        {
          "internalType": "string",
          "name": "email",
          "type": "string"
        },
        {
          "internalType": "bool",
          "name": "isRegistered",
          "type": "bool"
        }
      ],
      "stateMutability": "view",
      "type": "function",
      "constant": true
    },
    {
      "inputs": [
        {
          "internalType": "address",
          "name": "_doctorAddress",
          "type": "address"
        },
        {
          "internalType": "string",
          "name": "_fullName",
          "type": "string"
        },
        {
          "internalType": "string",
          "name": "_hospital",
          "type": "string"
        },
        {
          "internalType": "string",
          "name": "_addressDetails",
          "type": "string"
        },
        {
          "internalType": "string",
          "name": "_position",
          "type": "string"
        },
        {
          "internalType": "string",
          "name": "_department",
          "type": "string"
        },
        {
          "internalType": "string",
          "name": "_medicalID",
          "type": "string"
        },
        {
          "internalType": "string",
          "name": "_email",
          "type": "string"
        }
      ],
      "name": "registerDoctor",
      "outputs": [],
      "stateMutability": "nonpayable",
      "type": "function"
    },
    {
      "inputs": [
        {
          "internalType": "address",
          "name": "_doctorAddress",
          "type": "address"
        }
      ],
      "name": "getDoctorDetails",
      "outputs": [
        {
          "internalType": "string",
          "name": "",
          "type": "string"
        },
        {
          "internalType": "string",
          "name": "",
          "type": "string"
        },
        {
          "internalType": "string",
          "name": "",
          "type": "string"
        },
        {
          "internalType": "string",
          "name": "",
          "type": "string"
        },
        {
          "internalType": "string",
          "name": "",
          "type": "string"
        },
        {
          "internalType": "string",
          "name": "",
          "type": "string"
        },
        {
          "internalType": "string",
          "name": "",
          "type": "string"
        },
        {
          "internalType": "bool",
          "name": "",
          "type": "bool"
        }
      ],
      "stateMutability": "view",
      "type": "function",
      "constant": true
    }
  ],
  "bytecode": "0x608060405234801561001057600080fd5b50600080546001600160a01b03191633179055611044806100326000396000f3fe608060405234801561001057600080fd5b506004361061004c5760003560e01c80632dd6c05514610051578063a9583c2214610066578063bab90dbd14610096578063f851a440146100a9575b600080fd5b61006461005f366004610cc0565b6100be565b005b610079610074366004610c9f565b6102a9565b60405161008d989796959493929190610e71565b60405180910390f35b6100796100a4366004610c9f565b6106a4565b6100b1610b5a565b60405161008d9190610e2f565b6000546001600160a01b031633146100f15760405162461bcd60e51b81526004016100e890610f44565b60405180910390fd5b6001600160a01b03881660009081526001602052604090206007015460ff161561012d5760405162461bcd60e51b81526004016100e890610f86565b60408051610100810182528881526020808201899052818301889052606082018790526080820186905260a0820185905260c08201849052600160e083018190526001600160a01b038c1660009081529082529290922081518051929391926101999284920190610b69565b5060208281015180516101b29260018501920190610b69565b50604082015180516101ce916002840191602090910190610b69565b50606082015180516101ea916003840191602090910190610b69565b5060808201518051610206916004840191602090910190610b69565b5060a08201518051610222916005840191602090910190610b69565b5060c0820151805161023e916006840191602090910190610b69565b5060e091909101516007909101805460ff19169115159190911790556040516001600160a01b038916907fbc3a5b2aeb1bc52e3d56d3fd3423dd66cea5ecff8ae1f3bd0d75a0e608da7b8590610297908a908a90610e43565b60405180910390a25050505050505050565b6001602052600090815260409020805481906102c490610fbd565b80601f01602080910402602001604051908101604052809291908181526020018280546102f090610fbd565b801561033d5780601f106103125761010080835404028352916020019161033d565b820191906000526020600020905b81548152906001019060200180831161032057829003601f168201915b50505050509080600101805461035290610fbd565b80601f016020809104026020016040519081016040528092919081815260200182805461037e90610fbd565b80156103cb5780601f106103a0576101008083540402835291602001916103cb565b820191906000526020600020905b8154815290600101906020018083116103ae57829003601f168201915b5050505050908060020180546103e090610fbd565b80601f016020809104026020016040519081016040528092919081815260200182805461040c90610fbd565b80156104595780601f1061042e57610100808354040283529160200191610459565b820191906000526020600020905b81548152906001019060200180831161043c57829003601f168201915b50505050509080600301805461046e90610fbd565b80601f016020809104026020016040519081016040528092919081815260200182805461049a90610fbd565b80156104e75780601f106104bc576101008083540402835291602001916104e7565b820191906000526020600020905b8154815290600101906020018083116104ca57829003601f168201915b5050505050908060040180546104fc90610fbd565b80601f016020809104026020016040519081016040528092919081815260200182805461052890610fbd565b80156105755780601f1061054a57610100808354040283529160200191610575565b820191906000526020600020905b81548152906001019060200180831161055857829003601f168201915b50505050509080600501805461058a90610fbd565b80601f01602080910402602001604051908101604052809291908181526020018280546105b690610fbd565b80156106035780601f106105d857610100808354040283529160200191610603565b820191906000526020600020905b8154815290600101906020018083116105e657829003601f168201915b50505050509080600601805461061890610fbd565b80601f016020809104026020016040519081016040528092919081815260200182805461064490610fbd565b80156106915780601f1061066657610100808354040283529160200191610691565b820191906000526020600020905b81548152906001019060200180831161067457829003601f168201915b5050506007909301549192505060ff1688565b6060806060806060806060600080600160008b6001600160a01b03166001600160a01b03168152602001908152602001600020604051806101000160405290816000820180546106f390610fbd565b80601f016020809104026020016040519081016040528092919081815260200182805461071f90610fbd565b801561076c5780601f106107415761010080835404028352916020019161076c565b820191906000526020600020905b81548152906001019060200180831161074f57829003601f168201915b5050505050815260200160018201805461078590610fbd565b80601f01602080910402602001604051908101604052809291908181526020018280546107b190610fbd565b80156107fe5780601f106107d3576101008083540402835291602001916107fe565b820191906000526020600020905b8154815290600101906020018083116107e157829003601f168201915b5050505050815260200160028201805461081790610fbd565b80601f016020809104026020016040519081016040528092919081815260200182805461084390610fbd565b80156108905780601f1061086557610100808354040283529160200191610890565b820191906000526020600020905b81548152906001019060200180831161087357829003601f168201915b505050505081526020016003820180546108a990610fbd565b80601f01602080910402602001604051908101604052809291908181526020018280546108d590610fbd565b80156109225780601f106108f757610100808354040283529160200191610922565b820191906000526020600020905b81548152906001019060200180831161090557829003601f168201915b5050505050815260200160048201805461093b90610fbd565b80601f016020809104026020016040519081016040528092919081815260200182805461096790610fbd565b80156109b45780601f10610989576101008083540402835291602001916109b4565b820191906000526020600020905b81548152906001019060200180831161099757829003601f168201915b505050505081526020016005820180546109cd90610fbd565b80601f01602080910402602001604051908101604052809291908181526020018280546109f990610fbd565b8015610a465780601f10610a1b57610100808354040283529160200191610a46565b820191906000526020600020905b815481529060010190602001808311610a2957829003601f168201915b50505050508152602001600682018054610a5f90610fbd565b80601f0160208091040260200160405190810160405280929190818152602001828054610a8b90610fbd565b8015610ad85780601f10610aad57610100808354040283529160200191610ad8565b820191906000526020600020905b815481529060010190602001808311610abb57829003601f168201915b50505091835250506007919091015460ff16151560209091015260e0810151909150610b165760405162461bcd60e51b81526004016100e890610f15565b806000015181602001518260400151836060015184608001518560a001518660c001518760e001519850985098509850985098509850985050919395975091939597565b6000546001600160a01b031681565b828054610b7590610fbd565b90600052602060002090601f016020900481019282610b975760008555610bdd565b82601f10610bb057805160ff1916838001178555610bdd565b82800160010185558215610bdd579182015b82811115610bdd578251825591602001919060010190610bc2565b50610be9929150610bed565b5090565b5b80821115610be95760008155600101610bee565b80356001600160a01b0381168114610c1957600080fd5b919050565b600082601f830112610c2e578081fd5b813567ffffffffffffffff80821115610c4957610c49610ff8565b604051601f8301601f191681016020018281118282101715610c6d57610c6d610ff8565b604052828152848301602001861015610c84578384fd5b82602086016020830137918201602001929092529392505050565b600060208284031215610cb0578081fd5b610cb982610c02565b9392505050565b600080600080600080600080610100898b031215610cdc578384fd5b610ce589610c02565b9750602089013567ffffffffffffffff80821115610d01578586fd5b610d0d8c838d01610c1e565b985060408b0135915080821115610d22578586fd5b610d2e8c838d01610c1e565b975060608b0135915080821115610d43578586fd5b610d4f8c838d01610c1e565b965060808b0135915080821115610d64578586fd5b610d708c838d01610c1e565b955060a08b0135915080821115610d85578485fd5b610d918c838d01610c1e565b945060c08b0135915080821115610da6578384fd5b610db28c838d01610c1e565b935060e08b0135915080821115610dc7578283fd5b50610dd48b828c01610c1e565b9150509295985092959890939650565b60008151808452815b81811015610e0957602081850181015186830182015201610ded565b81811115610e1a5782602083870101525b50601f01601f19169290920160200192915050565b6001600160a01b0391909116815260200190565b600060408252610e566040830185610de4565b8281036020840152610e688185610de4565b95945050505050565b6000610100808352610e858184018c610de4565b90508281036020840152610e99818b610de4565b90508281036040840152610ead818a610de4565b90508281036060840152610ec18189610de4565b90508281036080840152610ed58188610de4565b905082810360a0840152610ee98187610de4565b905082810360c0840152610efd8186610de4565b91505082151560e08301529998505050505050505050565b602080825260159082015274111bd8dd1bdc881b9bdd081c9959da5cdd195c9959605a1b604082015260600190565b60208082526022908201527f4f6e6c792061646d696e2063616e20706572666f726d2074686973206163746960408201526137b760f11b606082015260800190565b60208082526019908201527f446f63746f7220616c7265616479207265676973746572656400000000000000604082015260600190565b600281046001821680610fd157607f821691505b60208210811415610ff257634e487b7160e01b600052602260045260246000fd5b50919050565b634e487b7160e01b600052604160045260246000fdfea2646970667358221220b800b055cd0a850b7dec613e3929b0df34d1ae85ad619adf39e54ecfb573ce6d64736f6c63430008000033",
  "immutableReferences": {},
  "source": "// SPDX-License-Identifier: MIT\r\npragma solidity ^0.8.0;\r\n\r\ncontract DoctorRegistry {\r\n    struct Doctor {\r\n        string fullName;\r\n        string hospital;\r\n        string addressDetails;\r\n        string position;\r\n        string department;\r\n        string medicalID;\r\n        string email;\r\n        bool isRegistered;\r\n    }\r\n\r\n    address public admin;\r\n    mapping(address => Doctor) public doctors;\r\n    event DoctorRegistered(address indexed doctorAddress, string fullName, string hospital);\r\n\r\n    modifier onlyAdmin() {\r\n        require(msg.sender == admin, \"Only admin can perform this action\");\r\n        _;\r\n    }\r\n\r\n    constructor() {\r\n        admin = msg.sender;\r\n    }\r\n\r\n    function registerDoctor(\r\n        address _doctorAddress,\r\n        string memory _fullName,\r\n        string memory _hospital,\r\n        string memory _addressDetails,\r\n        string memory _position,\r\n        string memory _department,\r\n        string memory _medicalID,\r\n        string memory _email\r\n    ) public onlyAdmin {\r\n        require(!doctors[_doctorAddress].isRegistered, \"Doctor already registered\");\r\n        \r\n        doctors[_doctorAddress] = Doctor(\r\n            _fullName,\r\n            _hospital,\r\n            _addressDetails,\r\n            _position,\r\n            _department,\r\n            _medicalID,\r\n            _email,\r\n            true\r\n        );\r\n        \r\n        emit DoctorRegistered(_doctorAddress, _fullName, _hospital);\r\n    }\r\n\r\n    function getDoctorDetails(address _doctorAddress) public view returns (\r\n        string memory, string memory, string memory, string memory, string memory, string memory, string memory, bool\r\n    ) {\r\n        Doctor memory doc = doctors[_doctorAddress];\r\n        require(doc.isRegistered, \"Doctor not registered\");\r\n        return (\r\n            doc.fullName,\r\n            doc.hospital,\r\n            doc.addressDetails,\r\n            doc.position,\r\n            doc.department,\r\n            doc.medicalID,\r\n            doc.email,\r\n            doc.isRegistered\r\n        );\r\n    }\r\n}",
  "sourcePath": "C:\\Users\\PRANAM\\Downloads\\kunj Bhanderi-20250301T120119Z-001\\kunj Bhanderi\\Healthcare (1)\\contracts\\DoctorRegistration.sol",
  "compiler": {
    "name": "solc",
    "version": "0.8.0+commit.c7dfd78e.Emscripten.clang"
  },
  "schemaVersion": "3.4.16",
  "updatedAt": "2025-04-08T09:07:21.081Z",
  "networkType": "ethereum",
  "devdoc": {
    "kind": "dev",
    "methods": {},
    "version": 1
  },
  "userdoc": {
    "kind": "user",
    "methods": {},
    "version": 1
  }
}