{
  "contractName": "LabRegistry",
  "abi": [
    {
      "inputs": [],
      "stateMutability": "nonpayable",
      "type": "constructor"
    },
    {
      "anonymous": false,
      "inputs": [
        {
          "indexed": false,
          "internalType": "string",
          "name": "email",
          "type": "string"
        },
        {
          "indexed": false,
          "internalType": "string",
          "name": "fullName",
          "type": "string"
        },
        {
          "indexed": false,
          "internalType": "string",
          "name": "association",
          "type": "string"
        },
        {
          "indexed": false,
          "internalType": "string",
          "name": "medicalID",
          "type": "string"
        },
        {
          "indexed": false,
          "internalType": "string",
          "name": "department",
          "type": "string"
        }
      ],
      "name": "LabRegistered",
      "type": "event"
    },
    {
      "inputs": [],
      "name": "admin",
      "outputs": [
        {
          "internalType": "address",
          "name": "",
          "type": "address"
        }
      ],
      "stateMutability": "view",
      "type": "function",
      "constant": true
    },
    {
      "inputs": [
        {
          "internalType": "bytes32",
          "name": "",
          "type": "bytes32"
        }
      ],
      "name": "labs",
      "outputs": [
        {
          "internalType": "string",
          "name": "fullName",
          "type": "string"
        },
        {
          "internalType": "string",
          "name": "association",
          "type": "string"
        },
        {
          "internalType": "string",
          "name": "medicalID",
          "type": "string"
        },
        {
          "internalType": "string",
          "name": "department",
          "type": "string"
        },
        {
          "internalType": "string",
          "name": "email",
          "type": "string"
        },
        {
          "internalType": "bool",
          "name": "isRegistered",
          "type": "bool"
        }
      ],
      "stateMutability": "view",
      "type": "function",
      "constant": true
    },
    {
      "inputs": [
        {
          "internalType": "string",
          "name": "_email",
          "type": "string"
        },
        {
          "internalType": "string",
          "name": "_fullName",
          "type": "string"
        },
        {
          "internalType": "string",
          "name": "_association",
          "type": "string"
        },
        {
          "internalType": "string",
          "name": "_medicalID",
          "type": "string"
        },
        {
          "internalType": "string",
          "name": "_department",
          "type": "string"
        }
      ],
      "name": "registerLab",
      "outputs": [],
      "stateMutability": "nonpayable",
      "type": "function"
    },
    {
      "inputs": [
        {
          "internalType": "string",
          "name": "_email",
          "type": "string"
        }
      ],
      "name": "getLabDetails",
      "outputs": [
        {
          "internalType": "string",
          "name": "fullName",
          "type": "string"
        },
        {
          "internalType": "string",
          "name": "association",
          "type": "string"
        },
        {
          "internalType": "string",
          "name": "medicalID",
          "type": "string"
        },
        {
          "internalType": "string",
          "name": "department",
          "type": "string"
        },
        {
          "internalType": "string",
          "name": "email",
          "type": "string"
        },
        {
          "internalType": "bool",
          "name": "isRegistered",
          "type": "bool"
        }
      ],
      "stateMutability": "view",
      "type": "function",
      "constant": true
    }
  ],
  "bytecode": "0x608060405234801561001057600080fd5b50600080546001600160a01b03191633179055610dc6806100326000396000f3fe608060405234801561001057600080fd5b506004361061004c5760003560e01c806323d2a08914610051578063b0024e0d1461007f578063bef2956c14610092578063f851a440146100a7575b600080fd5b61006461005f366004610a2a565b6100bc565b60405161007696959493929190610bfa565b60405180910390f35b61006461008d366004610a12565b61045e565b6100a56100a0366004610a65565b61073d565b005b6100af6108e9565b6040516100769190610b79565b6060806060806060600080876040516020016100d89190610b5d565b60408051601f1981840301815291815281516020928301206000818152600190935291206005015490915060ff1661012b5760405162461bcd60e51b815260040161012290610ca1565b60405180910390fd5b600081815260016020526040808220815160c0810190925280548290829061015290610d3f565b80601f016020809104026020016040519081016040528092919081815260200182805461017e90610d3f565b80156101cb5780601f106101a0576101008083540402835291602001916101cb565b820191906000526020600020905b8154815290600101906020018083116101ae57829003601f168201915b505050505081526020016001820180546101e490610d3f565b80601f016020809104026020016040519081016040528092919081815260200182805461021090610d3f565b801561025d5780601f106102325761010080835404028352916020019161025d565b820191906000526020600020905b81548152906001019060200180831161024057829003601f168201915b5050505050815260200160028201805461027690610d3f565b80601f01602080910402602001604051908101604052809291908181526020018280546102a290610d3f565b80156102ef5780601f106102c4576101008083540402835291602001916102ef565b820191906000526020600020905b8154815290600101906020018083116102d257829003601f168201915b5050505050815260200160038201805461030890610d3f565b80601f016020809104026020016040519081016040528092919081815260200182805461033490610d3f565b80156103815780601f1061035657610100808354040283529160200191610381565b820191906000526020600020905b81548152906001019060200180831161036457829003601f168201915b5050505050815260200160048201805461039a90610d3f565b80601f01602080910402602001604051908101604052809291908181526020018280546103c690610d3f565b80156104135780601f106103e857610100808354040283529160200191610413565b820191906000526020600020905b8154815290600101906020018083116103f657829003601f168201915b50505091835250506005919091015460ff16151560209182015281519082015160408301516060840151608085015160a090950151939e929d50909b50995091975095509350505050565b60016020526000908152604090208054819061047990610d3f565b80601f01602080910402602001604051908101604052809291908181526020018280546104a590610d3f565b80156104f25780601f106104c7576101008083540402835291602001916104f2565b820191906000526020600020905b8154815290600101906020018083116104d557829003601f168201915b50505050509080600101805461050790610d3f565b80601f016020809104026020016040519081016040528092919081815260200182805461053390610d3f565b80156105805780601f1061055557610100808354040283529160200191610580565b820191906000526020600020905b81548152906001019060200180831161056357829003601f168201915b50505050509080600201805461059590610d3f565b80601f01602080910402602001604051908101604052809291908181526020018280546105c190610d3f565b801561060e5780601f106105e35761010080835404028352916020019161060e565b820191906000526020600020905b8154815290600101906020018083116105f157829003601f168201915b50505050509080600301805461062390610d3f565b80601f016020809104026020016040519081016040528092919081815260200182805461064f90610d3f565b801561069c5780601f106106715761010080835404028352916020019161069c565b820191906000526020600020905b81548152906001019060200180831161067f57829003601f168201915b5050505050908060040180546106b190610d3f565b80601f01602080910402602001604051908101604052809291908181526020018280546106dd90610d3f565b801561072a5780601f106106ff5761010080835404028352916020019161072a565b820191906000526020600020905b81548152906001019060200180831161070d57829003601f168201915b5050506005909301549192505060ff1686565b6000546001600160a01b031633146107675760405162461bcd60e51b815260040161012290610ccd565b60008560405160200161077a9190610b5d565b60408051601f1981840301815291815281516020928301206000818152600190935291206005015490915060ff16156107c55760405162461bcd60e51b815260040161012290610c71565b6040805160c08101825286815260208082018790528183018690526060820185905260808201899052600160a08301819052600085815290825292909220815180519293919261081892849201906108f8565b50602082810151805161083192600185019201906108f8565b506040820151805161084d9160028401916020909101906108f8565b50606082015180516108699160038401916020909101906108f8565b50608082015180516108859160048401916020909101906108f8565b5060a091909101516005909101805460ff19169115159190911790556040517f85eff7ab134a767c2a63898b6f1a9231edc9643cb768e82e4b6e1c52490c8d97906108d99088908890889088908890610b8d565b60405180910390a1505050505050565b6000546001600160a01b031681565b82805461090490610d3f565b90600052602060002090601f016020900481019282610926576000855561096c565b82601f1061093f57805160ff191683800117855561096c565b8280016001018555821561096c579182015b8281111561096c578251825591602001919060010190610951565b5061097892915061097c565b5090565b5b80821115610978576000815560010161097d565b600082601f8301126109a1578081fd5b813567ffffffffffffffff808211156109bc576109bc610d7a565b604051601f8301601f1916810160200182811182821017156109e0576109e0610d7a565b6040528281528483016020018610156109f7578384fd5b82602086016020830137918201602001929092529392505050565b600060208284031215610a23578081fd5b5035919050565b600060208284031215610a3b578081fd5b813567ffffffffffffffff811115610a51578182fd5b610a5d84828501610991565b949350505050565b600080600080600060a08688031215610a7c578081fd5b853567ffffffffffffffff80821115610a93578283fd5b610a9f89838a01610991565b96506020880135915080821115610ab4578283fd5b610ac089838a01610991565b95506040880135915080821115610ad5578283fd5b610ae189838a01610991565b94506060880135915080821115610af6578283fd5b610b0289838a01610991565b93506080880135915080821115610b17578283fd5b50610b2488828901610991565b9150509295509295909350565b60008151808452610b49816020860160208601610d0f565b601f01601f19169290920160200192915050565b60008251610b6f818460208701610d0f565b9190910192915050565b6001600160a01b0391909116815260200190565b600060a08252610ba060a0830188610b31565b8281036020840152610bb28188610b31565b90508281036040840152610bc68187610b31565b90508281036060840152610bda8186610b31565b90508281036080840152610bee8185610b31565b98975050505050505050565b600060c08252610c0d60c0830189610b31565b8281036020840152610c1f8189610b31565b90508281036040840152610c338188610b31565b90508281036060840152610c478187610b31565b90508281036080840152610c5b8186610b31565b91505082151560a0830152979650505050505050565b60208082526016908201527513185888185b1c9958591e481c9959da5cdd195c995960521b604082015260600190565b602080825260129082015271131858881b9bdd081c9959da5cdd195c995960721b604082015260600190565b60208082526022908201527f4f6e6c792061646d696e2063616e20706572666f726d2074686973206163746960408201526137b760f11b606082015260800190565b60005b83811015610d2a578181015183820152602001610d12565b83811115610d39576000848401525b50505050565b600281046001821680610d5357607f821691505b60208210811415610d7457634e487b7160e01b600052602260045260246000fd5b50919050565b634e487b7160e01b600052604160045260246000fdfea264697066735822122003eabf36eb56a547420598c4edf9e50ec35172e316fe692a5c535122911d26eb64736f6c63430008000033",
  "immutableReferences": {},
  "source": "// SPDX-License-Identifier: MIT\r\npragma solidity ^0.8.0;\r\n\r\n// Contract to manage laboratory registration and details\r\ncontract LabRegistry {\r\n    // Structure to store laboratory information\r\n    // store the all information \r\n    struct Lab {\r\n        string fullName;      // Full name of the laboratory\r\n        string association;   // Associated organization/institution\r\n        string medicalID;     // Medical license/registration ID\r\n        string department;    // Department the lab belongs to\r\n        string email;         // Contact email address\r\n        bool isRegistered;    // Registration status\r\n    }\r\n\r\n    // Address of the admin who can register labs\r\n    address public admin;\r\n    // Mapping to store lab details against their hashed email\r\n    mapping(bytes32 => Lab) public labs; // Using hashed email as the key\r\n\r\n    // Event emitted when a new lab is registered\r\n    event LabRegistered(\r\n        string email,         // Email of the registered lab\r\n        string fullName,      // Name of the registered lab\r\n        string association,   // Association of the registered lab\r\n        string medicalID,     // Medical ID of the registered lab\r\n        string department     // Department of the registered lab\r\n    );\r\n\r\n    // Modifier to restrict access to admin only\r\n    modifier onlyAdmin() {\r\n        require(msg.sender == admin, \"Only admin can perform this action\");\r\n        _;\r\n    }\r\n\r\n    // Constructor sets deployer as admin\r\n    constructor() {\r\n        admin = msg.sender;\r\n    }\r\n\r\n    // Function to register a new laboratory\r\n    function registerLab(\r\n        string memory _email,         // Email address of the lab\r\n        string memory _fullName,      // Full name of the lab\r\n        string memory _association,   // Associated organization\r\n        string memory _medicalID,     // Medical license number\r\n        string memory _department     // Department name\r\n    ) public onlyAdmin {\r\n        bytes32 emailHash = keccak256(abi.encodePacked(_email)); // Hashing email as key\r\n        require(!labs[emailHash].isRegistered, \"Lab already registered\");\r\n\r\n        // Create new lab record\r\n        labs[emailHash] = Lab(\r\n            _fullName,\r\n            _association,\r\n            _medicalID,\r\n            _department,\r\n            _email,\r\n            true\r\n        );\r\n\r\n        // Emit event for lab registration\r\n        emit LabRegistered(_email, _fullName, _association, _medicalID, _department);\r\n    }\r\n\r\n    // Function to retrieve laboratory details using email\r\n    function getLabDetails(string memory _email) \r\n        public \r\n        view \r\n        returns (\r\n            string memory fullName,    // Full name of the lab\r\n            string memory association, // Associated organization\r\n            string memory medicalID,   // Medical license number\r\n            string memory department,  // Department name\r\n            string memory email,       // Email address\r\n            bool isRegistered         // Registration status\r\n        ) \r\n    {\r\n        bytes32 emailHash = keccak256(abi.encodePacked(_email)); \r\n        require(labs[emailHash].isRegistered, \"Lab not registered\");\r\n\r\n        // Get lab details from mapping\r\n        Lab memory lab = labs[emailHash];\r\n        // Return all lab details\r\n        return (\r\n            lab.fullName,\r\n            lab.association,\r\n            lab.medicalID,\r\n            lab.department,\r\n            lab.email,\r\n            lab.isRegistered\r\n        );\r\n    }\r\n}",
  "sourcePath": "C:\\Users\\PRANAM\\Downloads\\kunj Bhanderi-20250301T120119Z-001\\kunj Bhanderi\\Healthcare (1)\\contracts\\LabRegistry.sol",
  "compiler": {
    "name": "solc",
    "version": "0.8.0+commit.c7dfd78e.Emscripten.clang"
  },
  "schemaVersion": "3.4.16",
  "updatedAt": "2025-04-24T22:54:40.980Z",
  "networkType": "ethereum",
  "devdoc": {
    "kind": "dev",
    "methods": {},
    "version": 1
  },
  "userdoc": {
    "kind": "user",
    "methods": {},
    "version": 1
  }
}